{
  "address": "0x69a16dF908cC38E6dBFF309a5aF2E03DD2145E57",
  "abi": [
    {
      "anonymous": false,
      "inputs": [
        {
          "indexed": true,
          "internalType": "address",
          "name": "previousOwner",
          "type": "address"
        },
        {
          "indexed": true,
          "internalType": "address",
          "name": "newOwner",
          "type": "address"
        }
      ],
      "name": "OwnershipTransferred",
      "type": "event"
    },
    {
      "anonymous": false,
      "inputs": [
        {
          "indexed": false,
          "internalType": "address",
          "name": "account",
          "type": "address"
        }
      ],
      "name": "Paused",
      "type": "event"
    },
    {
      "anonymous": false,
      "inputs": [
        {
          "indexed": false,
          "internalType": "address",
          "name": "creator",
          "type": "address"
        },
        {
          "indexed": false,
          "internalType": "address",
          "name": "soldToken",
          "type": "address"
        },
        {
          "indexed": false,
          "internalType": "address",
          "name": "offerToken",
          "type": "address"
        },
        {
          "indexed": false,
          "internalType": "address",
          "name": "fundingWallet",
          "type": "address"
        }
      ],
      "name": "PresalePoolCreated",
      "type": "event"
    },
    {
      "anonymous": false,
      "inputs": [
        {
          "indexed": false,
          "internalType": "address",
          "name": "oldImpl",
          "type": "address"
        },
        {
          "indexed": false,
          "internalType": "address",
          "name": "newImpl",
          "type": "address"
        }
      ],
      "name": "PresalePoolImplementationChanged",
      "type": "event"
    },
    {
      "anonymous": false,
      "inputs": [
        {
          "indexed": false,
          "internalType": "address",
          "name": "account",
          "type": "address"
        }
      ],
      "name": "Unpaused",
      "type": "event"
    },
    {
      "inputs": [
        {
          "internalType": "address",
          "name": "_impl",
          "type": "address"
        }
      ],
      "name": "changeImpl",
      "outputs": [],
      "stateMutability": "nonpayable",
      "type": "function"
    },
    {
      "inputs": [
        {
          "internalType": "bytes32",
          "name": "_root",
          "type": "bytes32"
        },
        {
          "internalType": "address",
          "name": "_soldToken",
          "type": "address"
        },
        {
          "internalType": "address",
          "name": "_offerToken",
          "type": "address"
        },
        {
          "internalType": "address",
          "name": "_fundingWallet",
          "type": "address"
        },
        {
          "internalType": "uint256",
          "name": "_duration",
          "type": "uint256"
        },
        {
          "internalType": "uint256",
          "name": "_offeredCurrencyRate",
          "type": "uint256"
        },
        {
          "internalType": "uint256",
          "name": "_offeredCurrencyDecimal",
          "type": "uint256"
        }
      ],
      "name": "createPresalePool",
      "outputs": [
        {
          "internalType": "address",
          "name": "",
          "type": "address"
        }
      ],
      "stateMutability": "nonpayable",
      "type": "function"
    },
    {
      "inputs": [
        {
          "internalType": "uint256",
          "name": "_index",
          "type": "uint256"
        }
      ],
      "name": "getPoolByIndex",
      "outputs": [
        {
          "internalType": "address",
          "name": "",
          "type": "address"
        }
      ],
      "stateMutability": "view",
      "type": "function"
    },
    {
      "inputs": [],
      "name": "getPoolsLength",
      "outputs": [
        {
          "internalType": "uint256",
          "name": "",
          "type": "uint256"
        }
      ],
      "stateMutability": "view",
      "type": "function"
    },
    {
      "inputs": [
        {
          "internalType": "address",
          "name": "_soldToken",
          "type": "address"
        }
      ],
      "name": "getUserPoolsByToken",
      "outputs": [
        {
          "internalType": "address[]",
          "name": "",
          "type": "address[]"
        }
      ],
      "stateMutability": "view",
      "type": "function"
    },
    {
      "inputs": [
        {
          "internalType": "address",
          "name": "_soldToken",
          "type": "address"
        }
      ],
      "name": "getUserPoolsLengthByToken",
      "outputs": [
        {
          "internalType": "uint256",
          "name": "",
          "type": "uint256"
        }
      ],
      "stateMutability": "view",
      "type": "function"
    },
    {
      "inputs": [],
      "name": "impl",
      "outputs": [
        {
          "internalType": "address",
          "name": "",
          "type": "address"
        }
      ],
      "stateMutability": "view",
      "type": "function"
    },
    {
      "inputs": [
        {
          "internalType": "address",
          "name": "_impl",
          "type": "address"
        }
      ],
      "name": "initialize",
      "outputs": [],
      "stateMutability": "nonpayable",
      "type": "function"
    },
    {
      "inputs": [],
      "name": "owner",
      "outputs": [
        {
          "internalType": "address",
          "name": "",
          "type": "address"
        }
      ],
      "stateMutability": "view",
      "type": "function"
    },
    {
      "inputs": [],
      "name": "paused",
      "outputs": [
        {
          "internalType": "bool",
          "name": "",
          "type": "bool"
        }
      ],
      "stateMutability": "view",
      "type": "function"
    },
    {
      "inputs": [
        {
          "internalType": "uint256",
          "name": "",
          "type": "uint256"
        }
      ],
      "name": "pools",
      "outputs": [
        {
          "internalType": "address",
          "name": "",
          "type": "address"
        }
      ],
      "stateMutability": "view",
      "type": "function"
    },
    {
      "inputs": [],
      "name": "renounceOwnership",
      "outputs": [],
      "stateMutability": "nonpayable",
      "type": "function"
    },
    {
      "inputs": [
        {
          "internalType": "address",
          "name": "newOwner",
          "type": "address"
        }
      ],
      "name": "transferOwnership",
      "outputs": [],
      "stateMutability": "nonpayable",
      "type": "function"
    },
    {
      "inputs": [
        {
          "internalType": "address",
          "name": "",
          "type": "address"
        },
        {
          "internalType": "address",
          "name": "",
          "type": "address"
        },
        {
          "internalType": "uint256",
          "name": "",
          "type": "uint256"
        }
      ],
      "name": "userCreatedPools",
      "outputs": [
        {
          "internalType": "address",
          "name": "",
          "type": "address"
        }
      ],
      "stateMutability": "view",
      "type": "function"
    }
  ],
  "transactionHash": "0xc1266ea964fa0f5032da76100cc15016ae55e3a772bd9857348d9fa4295a7e0f",
  "args": [],
  "solcInputHash": "af6df3da463f8a8d4b0339a46ba651f1",
  "bytecode": "0x608060405234801561001057600080fd5b506110ad806100206000396000f3fe608060405234801561001057600080fd5b50600436106100ea5760003560e01c80638abf60771161008c578063b4bf1cdf11610066578063b4bf1cdf146101c0578063c4d66de8146101d3578063ce883cdb146101e6578063f2fde38b146101ee576100ea565b80638abf60771461019d5780638da5cb5b146101a5578063ac4afa38146101ad576100ea565b80635c975abb116100c85780635c975abb146101585780636ce0c4b51461016d578063715018a61461018057806388183a151461018a576100ea565b806315387bf8146100ef578063379958391461011857806345ddb01f14610138575b600080fd5b6101026100fd366004610b75565b610201565b60405161010f9190610ca9565b60405180910390f35b61012b610126366004610b75565b610280565b60405161010f919061106e565b61014b610146366004610b96565b6102a8565b60405161010f9190610c50565b6101606102ed565b60405161010f9190610cf6565b61014b61017b366004610c38565b6102f6565b61018861034d565b005b61014b610198366004610bd1565b6103a1565b61014b61053f565b61014b61054e565b61014b6101bb366004610c38565b61055d565b6101886101ce366004610b75565b610587565b6101886101e1366004610b75565b61066a565b61012b610718565b6101886101fc366004610b75565b61071e565b3360009081526099602090815260408083206001600160a01b038516845282529182902080548351818402810184019094528084526060939283018282801561027357602002820191906000526020600020905b81546001600160a01b03168152600190910190602001808311610255575b505050505090505b919050565b3360009081526099602090815260408083206001600160a01b03949094168352929052205490565b609960205282600052604060002060205281600052604060002081815481106102d057600080fd5b6000918252602090912001546001600160a01b0316925083915050565b60335460ff1690565b600060988281548110610332577f4e487b7100000000000000000000000000000000000000000000000000000000600052603260045260246000fd5b6000918252602090912001546001600160a01b031692915050565b61035561078f565b6001600160a01b031661036661054e565b6001600160a01b0316146103955760405162461bcd60e51b815260040161038c90610f22565b60405180910390fd5b61039f6000610793565b565b60006103ab6102ed565b156103c85760405162461bcd60e51b815260040161038c90610e57565b6001600160a01b0387166103ee5760405162461bcd60e51b815260040161038c90610dfa565b6001600160a01b0385166104145760405162461bcd60e51b815260040161038c90610f57565b826104315760405162461bcd60e51b815260040161038c90611011565b8361044e5760405162461bcd60e51b815260040161038c90610d9d565b609754600090610466906001600160a01b03166107f2565b6040517fe27000d40000000000000000000000000000000000000000000000000000000081529091506001600160a01b0382169063e27000d4906104ba908c908c908c908c908c908c908c90600401610d01565b600060405180830381600087803b1580156104d457600080fd5b505af11580156104e8573d6000803e3d6000fd5b505050506104f68189610878565b7f39c92d1103031dd0874a4f812a29a1ab284ab93064828f94274ff630a45b9cdb3389898960405161052b9493929190610c7e565b60405180910390a198975050505050505050565b6097546001600160a01b031681565b6065546001600160a01b031690565b6098818154811061056d57600080fd5b6000918252602090912001546001600160a01b0316905081565b61058f61078f565b6001600160a01b03166105a061054e565b6001600160a01b0316146105c65760405162461bcd60e51b815260040161038c90610f22565b6097546001600160a01b03828116911614156105f45760405162461bcd60e51b815260040161038c90610fb4565b6097546040517f5cdce331910d9f3e2bd25ac68407bf65e63a20fba8e20c745a6bf5bb9798f78091610633916001600160a01b03909116908490610c64565b60405180910390a16097805473ffffffffffffffffffffffffffffffffffffffff19166001600160a01b0392909216919091179055565b600054610100900460ff1680610683575060005460ff16155b61069f5760405162461bcd60e51b815260040161038c90610ec5565b600054610100900460ff161580156106ca576000805460ff1961ff0019909116610100171660011790555b6106d2610909565b6106da61098d565b6097805473ffffffffffffffffffffffffffffffffffffffff19166001600160a01b0384161790558015610714576000805461ff00191690555b5050565b60985490565b61072661078f565b6001600160a01b031661073761054e565b6001600160a01b03161461075d5760405162461bcd60e51b815260040161038c90610f22565b6001600160a01b0381166107835760405162461bcd60e51b815260040161038c90610d40565b61078c81610793565b50565b3390565b606580546001600160a01b0383811673ffffffffffffffffffffffffffffffffffffffff19831681179093556040519116919082907f8be0079c531659141344cd1fd0a4f28419497f9722a3daafe3b4186f6b6457e090600090a35050565b60006040517f3d602d80600a3d3981f3363d3d373d3d3d363d7300000000000000000000000081528260601b60148201527f5af43d82803e903d91602b57fd5bf3000000000000000000000000000000000060288201526037816000f09150506001600160a01b03811661027b5760405162461bcd60e51b815260040161038c90610e8e565b3360009081526099602090815260408083206001600160a01b0394851684528252822080546001818101835591845291832090910180549490931673ffffffffffffffffffffffffffffffffffffffff1994851681179093556098805491820181559091527f2237a976fa961f5921fd19f2b03c925c725d77b20ce8f790c19709c03de4d814018054909216179055565b600054610100900460ff1680610922575060005460ff16155b61093e5760405162461bcd60e51b815260040161038c90610ec5565b600054610100900460ff16158015610969576000805460ff1961ff0019909116610100171660011790555b6109716109fd565b610979610a70565b801561078c576000805461ff001916905550565b600054610100900460ff16806109a6575060005460ff16155b6109c25760405162461bcd60e51b815260040161038c90610ec5565b600054610100900460ff161580156109ed576000805460ff1961ff0019909116610100171660011790555b6109f56109fd565b610979610ae0565b600054610100900460ff1680610a16575060005460ff16155b610a325760405162461bcd60e51b815260040161038c90610ec5565b600054610100900460ff16158015610979576000805460ff1961ff001990911661010017166001179055801561078c576000805461ff001916905550565b600054610100900460ff1680610a89575060005460ff16155b610aa55760405162461bcd60e51b815260040161038c90610ec5565b600054610100900460ff16158015610ad0576000805460ff1961ff0019909116610100171660011790555b610979610adb61078f565b610793565b600054610100900460ff1680610af9575060005460ff16155b610b155760405162461bcd60e51b815260040161038c90610ec5565b600054610100900460ff16158015610b40576000805460ff1961ff0019909116610100171660011790555b6033805460ff19169055801561078c576000805461ff001916905550565b80356001600160a01b038116811461027b57600080fd5b600060208284031215610b86578081fd5b610b8f82610b5e565b9392505050565b600080600060608486031215610baa578182fd5b610bb384610b5e565b9250610bc160208501610b5e565b9150604084013590509250925092565b600080600080600080600060e0888a031215610beb578283fd5b87359650610bfb60208901610b5e565b9550610c0960408901610b5e565b9450610c1760608901610b5e565b9699959850939660808101359560a0820135955060c0909101359350915050565b600060208284031215610c49578081fd5b5035919050565b6001600160a01b0391909116815260200190565b6001600160a01b0392831681529116602082015260400190565b6001600160a01b03948516815292841660208401529083166040830152909116606082015260800190565b6020808252825182820181905260009190848201906040850190845b81811015610cea5783516001600160a01b031683529284019291840191600101610cc5565b50909695505050505050565b901515815260200190565b9687526001600160a01b0395861660208801529385166040870152919093166060850152608084019290925260a083019190915260c082015260e00190565b60208082526026908201527f4f776e61626c653a206e6577206f776e657220697320746865207a65726f206160408201527f6464726573730000000000000000000000000000000000000000000000000000606082015260800190565b60208082526029908201527f50726573616c65506f6f6c466163746f72793a3a496e76616c696420706f6f6c60408201527f206475726174696f6e0000000000000000000000000000000000000000000000606082015260800190565b6020808252602f908201527f50726573616c65506f6f6c466163746f72793a3a496e76616c696420736f6c6460408201527f20746f6b656e2061646472657373210000000000000000000000000000000000606082015260800190565b60208082526010908201527f5061757361626c653a2070617573656400000000000000000000000000000000604082015260600190565b60208082526016908201527f455243313136373a20637265617465206661696c656400000000000000000000604082015260600190565b6020808252602e908201527f496e697469616c697a61626c653a20636f6e747261637420697320616c72656160408201527f647920696e697469616c697a6564000000000000000000000000000000000000606082015260800190565b6020808252818101527f4f776e61626c653a2063616c6c6572206973206e6f7420746865206f776e6572604082015260600190565b60208082526033908201527f50726573616c65506f6f6c466163746f72793a3a496e76616c69642066756e6460408201527f696e672077616c6c657420616464726573732100000000000000000000000000606082015260800190565b60208082526038908201527f50726573616c65506f6f6c466163746f72793a3a4e6f742061626c6520746f2060408201527f7365742073616d6520696d706c656d656e746174696f6e210000000000000000606082015260800190565b60208082526030908201527f50726573616c65506f6f6c466163746f72793a3a496e76616c6964206f66666560408201527f722063757272656e637920726174652100000000000000000000000000000000606082015260800190565b9081526020019056fea2646970667358221220f9efa1bd03e3356070179ddb11ca94a19d4effeb76fcc7799cc2ab0f062b4a8364736f6c63430008000033",
  "devdoc": {
    "kind": "dev",
    "methods": {
      "owner()": {
        "details": "Returns the address of the current owner."
      },
      "paused()": {
        "details": "Returns true if the contract is paused, and false otherwise."
      },
      "renounceOwnership()": {
        "details": "Leaves the contract without owner. It will not be possible to call `onlyOwner` functions anymore. Can only be called by the current owner. NOTE: Renouncing ownership will leave the contract without an owner, thereby removing any functionality that is only available to the owner."
      },
      "transferOwnership(address)": {
        "details": "Transfers ownership of the contract to a new account (`newOwner`). Can only be called by the current owner."
      }
    },
    "version": 1
  },
  "userdoc": {
    "kind": "user",
    "methods": {},
    "version": 1
  },
  "storageLayout": {
    "storage": [
      {
        "astId": 130,
        "contract": "contracts/presale-pool/PresaleFactory.sol:PresalePoolFactory",
        "label": "_initialized",
        "offset": 0,
        "slot": "0",
        "type": "t_bool"
      },
      {
        "astId": 133,
        "contract": "contracts/presale-pool/PresaleFactory.sol:PresalePoolFactory",
        "label": "_initializing",
        "offset": 1,
        "slot": "0",
        "type": "t_bool"
      },
      {
        "astId": 384,
        "contract": "contracts/presale-pool/PresaleFactory.sol:PresalePoolFactory",
        "label": "__gap",
        "offset": 0,
        "slot": "1",
        "type": "t_array(t_uint256)50_storage"
      },
      {
        "astId": 191,
        "contract": "contracts/presale-pool/PresaleFactory.sol:PresalePoolFactory",
        "label": "_paused",
        "offset": 0,
        "slot": "51",
        "type": "t_bool"
      },
      {
        "astId": 282,
        "contract": "contracts/presale-pool/PresaleFactory.sol:PresalePoolFactory",
        "label": "__gap",
        "offset": 0,
        "slot": "52",
        "type": "t_array(t_uint256)49_storage"
      },
      {
        "astId": 10,
        "contract": "contracts/presale-pool/PresaleFactory.sol:PresalePoolFactory",
        "label": "_owner",
        "offset": 0,
        "slot": "101",
        "type": "t_address"
      },
      {
        "astId": 123,
        "contract": "contracts/presale-pool/PresaleFactory.sol:PresalePoolFactory",
        "label": "__gap",
        "offset": 0,
        "slot": "102",
        "type": "t_array(t_uint256)49_storage"
      },
      {
        "astId": 1392,
        "contract": "contracts/presale-pool/PresaleFactory.sol:PresalePoolFactory",
        "label": "impl",
        "offset": 0,
        "slot": "151",
        "type": "t_address"
      },
      {
        "astId": 1395,
        "contract": "contracts/presale-pool/PresaleFactory.sol:PresalePoolFactory",
        "label": "pools",
        "offset": 0,
        "slot": "152",
        "type": "t_array(t_address)dyn_storage"
      },
      {
        "astId": 1402,
        "contract": "contracts/presale-pool/PresaleFactory.sol:PresalePoolFactory",
        "label": "userCreatedPools",
        "offset": 0,
        "slot": "153",
        "type": "t_mapping(t_address,t_mapping(t_address,t_array(t_address)dyn_storage))"
      }
    ],
    "types": {
      "t_address": {
        "encoding": "inplace",
        "label": "address",
        "numberOfBytes": "20"
      },
      "t_array(t_address)dyn_storage": {
        "base": "t_address",
        "encoding": "dynamic_array",
        "label": "address[]",
        "numberOfBytes": "32"
      },
      "t_array(t_uint256)49_storage": {
        "base": "t_uint256",
        "encoding": "inplace",
        "label": "uint256[49]",
        "numberOfBytes": "1568"
      },
      "t_array(t_uint256)50_storage": {
        "base": "t_uint256",
        "encoding": "inplace",
        "label": "uint256[50]",
        "numberOfBytes": "1600"
      },
      "t_bool": {
        "encoding": "inplace",
        "label": "bool",
        "numberOfBytes": "1"
      },
      "t_mapping(t_address,t_array(t_address)dyn_storage)": {
        "encoding": "mapping",
        "key": "t_address",
        "label": "mapping(address => address[])",
        "numberOfBytes": "32",
        "value": "t_array(t_address)dyn_storage"
      },
      "t_mapping(t_address,t_mapping(t_address,t_array(t_address)dyn_storage))": {
        "encoding": "mapping",
        "key": "t_address",
        "label": "mapping(address => mapping(address => address[]))",
        "numberOfBytes": "32",
        "value": "t_mapping(t_address,t_array(t_address)dyn_storage)"
      },
      "t_uint256": {
        "encoding": "inplace",
        "label": "uint256",
        "numberOfBytes": "32"
      }
    }
  }
}