{
  "address": "0x05cdE91d6AF8B5CF038a7C2dfb866F8d3B1e200B",
  "abi": [
    {
      "anonymous": false,
      "inputs": [
        {
          "indexed": true,
          "internalType": "address",
          "name": "previousOwner",
          "type": "address"
        },
        {
          "indexed": true,
          "internalType": "address",
          "name": "newOwner",
          "type": "address"
        }
      ],
      "name": "OwnershipTransferred",
      "type": "event"
    },
    {
      "anonymous": false,
      "inputs": [
        {
          "indexed": false,
          "internalType": "address",
          "name": "account",
          "type": "address"
        }
      ],
      "name": "Paused",
      "type": "event"
    },
    {
      "anonymous": false,
      "inputs": [
        {
          "indexed": false,
          "internalType": "address",
          "name": "creator",
          "type": "address"
        },
        {
          "indexed": false,
          "internalType": "address",
          "name": "soldToken",
          "type": "address"
        },
        {
          "indexed": false,
          "internalType": "address",
          "name": "offerToken",
          "type": "address"
        },
        {
          "indexed": false,
          "internalType": "address",
          "name": "fundingWallet",
          "type": "address"
        }
      ],
      "name": "PresalePoolCreated",
      "type": "event"
    },
    {
      "anonymous": false,
      "inputs": [
        {
          "indexed": false,
          "internalType": "address",
          "name": "oldImpl",
          "type": "address"
        },
        {
          "indexed": false,
          "internalType": "address",
          "name": "newImpl",
          "type": "address"
        }
      ],
      "name": "PresalePoolImplementationChanged",
      "type": "event"
    },
    {
      "anonymous": false,
      "inputs": [
        {
          "indexed": false,
          "internalType": "address",
          "name": "account",
          "type": "address"
        }
      ],
      "name": "Unpaused",
      "type": "event"
    },
    {
      "inputs": [
        {
          "internalType": "address",
          "name": "_impl",
          "type": "address"
        }
      ],
      "name": "changeImpl",
      "outputs": [],
      "stateMutability": "nonpayable",
      "type": "function"
    },
    {
      "inputs": [
        {
          "internalType": "bytes32",
          "name": "_root",
          "type": "bytes32"
        },
        {
          "internalType": "address",
          "name": "_soldToken",
          "type": "address"
        },
        {
          "internalType": "address",
          "name": "_offerToken",
          "type": "address"
        },
        {
          "internalType": "address",
          "name": "_fundingWallet",
          "type": "address"
        },
        {
          "internalType": "uint256",
          "name": "_openTime",
          "type": "uint256"
        },
        {
          "internalType": "uint256",
          "name": "_duration",
          "type": "uint256"
        },
        {
          "internalType": "uint256",
          "name": "_offeredCurrencyRate",
          "type": "uint256"
        },
        {
          "internalType": "uint256",
          "name": "_offeredCurrencyDecimal",
          "type": "uint256"
        }
      ],
      "name": "createPresalePool",
      "outputs": [
        {
          "internalType": "address",
          "name": "",
          "type": "address"
        }
      ],
      "stateMutability": "nonpayable",
      "type": "function"
    },
    {
      "inputs": [
        {
          "internalType": "uint256",
          "name": "_index",
          "type": "uint256"
        }
      ],
      "name": "getPoolByIndex",
      "outputs": [
        {
          "internalType": "address",
          "name": "",
          "type": "address"
        }
      ],
      "stateMutability": "view",
      "type": "function"
    },
    {
      "inputs": [],
      "name": "getPoolsLength",
      "outputs": [
        {
          "internalType": "uint256",
          "name": "",
          "type": "uint256"
        }
      ],
      "stateMutability": "view",
      "type": "function"
    },
    {
      "inputs": [
        {
          "internalType": "address",
          "name": "_soldToken",
          "type": "address"
        }
      ],
      "name": "getUserPoolsByToken",
      "outputs": [
        {
          "internalType": "address[]",
          "name": "",
          "type": "address[]"
        }
      ],
      "stateMutability": "view",
      "type": "function"
    },
    {
      "inputs": [
        {
          "internalType": "address",
          "name": "_soldToken",
          "type": "address"
        }
      ],
      "name": "getUserPoolsLengthByToken",
      "outputs": [
        {
          "internalType": "uint256",
          "name": "",
          "type": "uint256"
        }
      ],
      "stateMutability": "view",
      "type": "function"
    },
    {
      "inputs": [],
      "name": "impl",
      "outputs": [
        {
          "internalType": "address",
          "name": "",
          "type": "address"
        }
      ],
      "stateMutability": "view",
      "type": "function"
    },
    {
      "inputs": [
        {
          "internalType": "address",
          "name": "_impl",
          "type": "address"
        }
      ],
      "name": "initialize",
      "outputs": [],
      "stateMutability": "nonpayable",
      "type": "function"
    },
    {
      "inputs": [],
      "name": "owner",
      "outputs": [
        {
          "internalType": "address",
          "name": "",
          "type": "address"
        }
      ],
      "stateMutability": "view",
      "type": "function"
    },
    {
      "inputs": [],
      "name": "paused",
      "outputs": [
        {
          "internalType": "bool",
          "name": "",
          "type": "bool"
        }
      ],
      "stateMutability": "view",
      "type": "function"
    },
    {
      "inputs": [
        {
          "internalType": "uint256",
          "name": "",
          "type": "uint256"
        }
      ],
      "name": "pools",
      "outputs": [
        {
          "internalType": "address",
          "name": "",
          "type": "address"
        }
      ],
      "stateMutability": "view",
      "type": "function"
    },
    {
      "inputs": [],
      "name": "renounceOwnership",
      "outputs": [],
      "stateMutability": "nonpayable",
      "type": "function"
    },
    {
      "inputs": [
        {
          "internalType": "address",
          "name": "newOwner",
          "type": "address"
        }
      ],
      "name": "transferOwnership",
      "outputs": [],
      "stateMutability": "nonpayable",
      "type": "function"
    },
    {
      "inputs": [
        {
          "internalType": "address",
          "name": "",
          "type": "address"
        },
        {
          "internalType": "address",
          "name": "",
          "type": "address"
        },
        {
          "internalType": "uint256",
          "name": "",
          "type": "uint256"
        }
      ],
      "name": "userCreatedPools",
      "outputs": [
        {
          "internalType": "address",
          "name": "",
          "type": "address"
        }
      ],
      "stateMutability": "view",
      "type": "function"
    }
  ],
  "transactionHash": "0xd285420a8ed180065a72f2d3b220cf117c1d298037a094af2f1abf054ded026b",
  "args": [],
  "solcInputHash": "530481bbc76a7a11f5ffd05f67d74477",
  "bytecode": "0x608060405234801561001057600080fd5b506110bf806100206000396000f3fe608060405234801561001057600080fd5b50600436106100ea5760003560e01c80638abf60771161008c578063b4bf1cdf11610066578063b4bf1cdf146101c0578063c4d66de8146101d3578063ce883cdb146101e6578063f2fde38b146101ee576100ea565b80638abf60771461019d5780638da5cb5b146101a5578063ac4afa38146101ad576100ea565b80635c975abb116100c85780635c975abb146101585780636cd233f21461016d5780636ce0c4b514610180578063715018a614610193576100ea565b806315387bf8146100ef578063379958391461011857806345ddb01f14610138575b600080fd5b6101026100fd366004610b78565b610201565b60405161010f9190610cb5565b60405180910390f35b61012b610126366004610b78565b610280565b60405161010f9190611080565b61014b610146366004610b99565b6102a8565b60405161010f9190610c5c565b6101606102ed565b60405161010f9190610d02565b61014b61017b366004610bd4565b6102f6565b61014b61018e366004610c44565b6104a0565b61019b6104f7565b005b61014b610542565b61014b610551565b61014b6101bb366004610c44565b610560565b61019b6101ce366004610b78565b61058a565b61019b6101e1366004610b78565b61066d565b61012b61071b565b61019b6101fc366004610b78565b610721565b3360009081526099602090815260408083206001600160a01b038516845282529182902080548351818402810184019094528084526060939283018282801561027357602002820191906000526020600020905b81546001600160a01b03168152600190910190602001808311610255575b505050505090505b919050565b3360009081526099602090815260408083206001600160a01b03949094168352929052205490565b609960205282600052604060002060205281600052604060002081815481106102d057600080fd5b6000918252602090912001546001600160a01b0316925083915050565b60335460ff1690565b60006103006102ed565b156103265760405162461bcd60e51b815260040161031d90610e69565b60405180910390fd5b6001600160a01b03881661034c5760405162461bcd60e51b815260040161031d90610e0c565b6001600160a01b0386166103725760405162461bcd60e51b815260040161031d90610f69565b8261038f5760405162461bcd60e51b815260040161031d90611023565b836103ac5760405162461bcd60e51b815260040161031d90610daf565b6097546000906103c4906001600160a01b0316610792565b6040517f6ea5e9680000000000000000000000000000000000000000000000000000000081529091506001600160a01b03821690636ea5e9689061041a908d908d908d908d908d908d908d908d90600401610d0d565b600060405180830381600087803b15801561043457600080fd5b505af1158015610448573d6000803e3d6000fd5b50505050610456818a610818565b7f39c92d1103031dd0874a4f812a29a1ab284ab93064828f94274ff630a45b9cdb338a8a8a60405161048b9493929190610c8a565b60405180910390a19998505050505050505050565b6000609882815481106104dc577f4e487b7100000000000000000000000000000000000000000000000000000000600052603260045260246000fd5b6000918252602090912001546001600160a01b031692915050565b6104ff6108a9565b6001600160a01b0316610510610551565b6001600160a01b0316146105365760405162461bcd60e51b815260040161031d90610f34565b61054060006108ad565b565b6097546001600160a01b031681565b6065546001600160a01b031690565b6098818154811061057057600080fd5b6000918252602090912001546001600160a01b0316905081565b6105926108a9565b6001600160a01b03166105a3610551565b6001600160a01b0316146105c95760405162461bcd60e51b815260040161031d90610f34565b6097546001600160a01b03828116911614156105f75760405162461bcd60e51b815260040161031d90610fc6565b6097546040517f5cdce331910d9f3e2bd25ac68407bf65e63a20fba8e20c745a6bf5bb9798f78091610636916001600160a01b03909116908490610c70565b60405180910390a16097805473ffffffffffffffffffffffffffffffffffffffff19166001600160a01b0392909216919091179055565b600054610100900460ff1680610686575060005460ff16155b6106a25760405162461bcd60e51b815260040161031d90610ed7565b600054610100900460ff161580156106cd576000805460ff1961ff0019909116610100171660011790555b6106d561090c565b6106dd610990565b6097805473ffffffffffffffffffffffffffffffffffffffff19166001600160a01b0384161790558015610717576000805461ff00191690555b5050565b60985490565b6107296108a9565b6001600160a01b031661073a610551565b6001600160a01b0316146107605760405162461bcd60e51b815260040161031d90610f34565b6001600160a01b0381166107865760405162461bcd60e51b815260040161031d90610d52565b61078f816108ad565b50565b60006040517f3d602d80600a3d3981f3363d3d373d3d3d363d7300000000000000000000000081528260601b60148201527f5af43d82803e903d91602b57fd5bf3000000000000000000000000000000000060288201526037816000f09150506001600160a01b03811661027b5760405162461bcd60e51b815260040161031d90610ea0565b3360009081526099602090815260408083206001600160a01b0394851684528252822080546001818101835591845291832090910180549490931673ffffffffffffffffffffffffffffffffffffffff1994851681179093556098805491820181559091527f2237a976fa961f5921fd19f2b03c925c725d77b20ce8f790c19709c03de4d814018054909216179055565b3390565b606580546001600160a01b0383811673ffffffffffffffffffffffffffffffffffffffff19831681179093556040519116919082907f8be0079c531659141344cd1fd0a4f28419497f9722a3daafe3b4186f6b6457e090600090a35050565b600054610100900460ff1680610925575060005460ff16155b6109415760405162461bcd60e51b815260040161031d90610ed7565b600054610100900460ff1615801561096c576000805460ff1961ff0019909116610100171660011790555b610974610a00565b61097c610a73565b801561078f576000805461ff001916905550565b600054610100900460ff16806109a9575060005460ff16155b6109c55760405162461bcd60e51b815260040161031d90610ed7565b600054610100900460ff161580156109f0576000805460ff1961ff0019909116610100171660011790555b6109f8610a00565b61097c610ae3565b600054610100900460ff1680610a19575060005460ff16155b610a355760405162461bcd60e51b815260040161031d90610ed7565b600054610100900460ff1615801561097c576000805460ff1961ff001990911661010017166001179055801561078f576000805461ff001916905550565b600054610100900460ff1680610a8c575060005460ff16155b610aa85760405162461bcd60e51b815260040161031d90610ed7565b600054610100900460ff16158015610ad3576000805460ff1961ff0019909116610100171660011790555b61097c610ade6108a9565b6108ad565b600054610100900460ff1680610afc575060005460ff16155b610b185760405162461bcd60e51b815260040161031d90610ed7565b600054610100900460ff16158015610b43576000805460ff1961ff0019909116610100171660011790555b6033805460ff19169055801561078f576000805461ff001916905550565b80356001600160a01b038116811461027b57600080fd5b600060208284031215610b89578081fd5b610b9282610b61565b9392505050565b600080600060608486031215610bad578182fd5b610bb684610b61565b9250610bc460208501610b61565b9150604084013590509250925092565b600080600080600080600080610100898b031215610bf0578384fd5b88359750610c0060208a01610b61565b9650610c0e60408a01610b61565b9550610c1c60608a01610b61565b979a969950949760808101359660a0820135965060c0820135955060e0909101359350915050565b600060208284031215610c55578081fd5b5035919050565b6001600160a01b0391909116815260200190565b6001600160a01b0392831681529116602082015260400190565b6001600160a01b03948516815292841660208401529083166040830152909116606082015260800190565b6020808252825182820181905260009190848201906040850190845b81811015610cf65783516001600160a01b031683529284019291840191600101610cd1565b50909695505050505050565b901515815260200190565b9788526001600160a01b0396871660208901529486166040880152929094166060860152608085015260a084019290925260c083019190915260e08201526101000190565b60208082526026908201527f4f776e61626c653a206e6577206f776e657220697320746865207a65726f206160408201527f6464726573730000000000000000000000000000000000000000000000000000606082015260800190565b60208082526029908201527f50726573616c65506f6f6c466163746f72793a3a496e76616c696420706f6f6c60408201527f206475726174696f6e0000000000000000000000000000000000000000000000606082015260800190565b6020808252602f908201527f50726573616c65506f6f6c466163746f72793a3a496e76616c696420736f6c6460408201527f20746f6b656e2061646472657373210000000000000000000000000000000000606082015260800190565b60208082526010908201527f5061757361626c653a2070617573656400000000000000000000000000000000604082015260600190565b60208082526016908201527f455243313136373a20637265617465206661696c656400000000000000000000604082015260600190565b6020808252602e908201527f496e697469616c697a61626c653a20636f6e747261637420697320616c72656160408201527f647920696e697469616c697a6564000000000000000000000000000000000000606082015260800190565b6020808252818101527f4f776e61626c653a2063616c6c6572206973206e6f7420746865206f776e6572604082015260600190565b60208082526033908201527f50726573616c65506f6f6c466163746f72793a3a496e76616c69642066756e6460408201527f696e672077616c6c657420616464726573732100000000000000000000000000606082015260800190565b60208082526038908201527f50726573616c65506f6f6c466163746f72793a3a4e6f742061626c6520746f2060408201527f7365742073616d6520696d706c656d656e746174696f6e210000000000000000606082015260800190565b60208082526030908201527f50726573616c65506f6f6c466163746f72793a3a496e76616c6964206f66666560408201527f722063757272656e637920726174652100000000000000000000000000000000606082015260800190565b9081526020019056fea2646970667358221220bdbf208b6355e7c2b606961017126d255d7ca86bf02bdf2d4b5a9ffa34b578f564736f6c63430008000033",
  "devdoc": {
    "kind": "dev",
    "methods": {
      "owner()": {
        "details": "Returns the address of the current owner."
      },
      "paused()": {
        "details": "Returns true if the contract is paused, and false otherwise."
      },
      "renounceOwnership()": {
        "details": "Leaves the contract without owner. It will not be possible to call `onlyOwner` functions anymore. Can only be called by the current owner. NOTE: Renouncing ownership will leave the contract without an owner, thereby removing any functionality that is only available to the owner."
      },
      "transferOwnership(address)": {
        "details": "Transfers ownership of the contract to a new account (`newOwner`). Can only be called by the current owner."
      }
    },
    "version": 1
  },
  "userdoc": {
    "kind": "user",
    "methods": {},
    "version": 1
  },
  "storageLayout": {
    "storage": [
      {
        "astId": 130,
        "contract": "contracts/presale-pool/PresaleFactory.sol:PresalePoolFactory",
        "label": "_initialized",
        "offset": 0,
        "slot": "0",
        "type": "t_bool"
      },
      {
        "astId": 133,
        "contract": "contracts/presale-pool/PresaleFactory.sol:PresalePoolFactory",
        "label": "_initializing",
        "offset": 1,
        "slot": "0",
        "type": "t_bool"
      },
      {
        "astId": 384,
        "contract": "contracts/presale-pool/PresaleFactory.sol:PresalePoolFactory",
        "label": "__gap",
        "offset": 0,
        "slot": "1",
        "type": "t_array(t_uint256)50_storage"
      },
      {
        "astId": 191,
        "contract": "contracts/presale-pool/PresaleFactory.sol:PresalePoolFactory",
        "label": "_paused",
        "offset": 0,
        "slot": "51",
        "type": "t_bool"
      },
      {
        "astId": 282,
        "contract": "contracts/presale-pool/PresaleFactory.sol:PresalePoolFactory",
        "label": "__gap",
        "offset": 0,
        "slot": "52",
        "type": "t_array(t_uint256)49_storage"
      },
      {
        "astId": 10,
        "contract": "contracts/presale-pool/PresaleFactory.sol:PresalePoolFactory",
        "label": "_owner",
        "offset": 0,
        "slot": "101",
        "type": "t_address"
      },
      {
        "astId": 123,
        "contract": "contracts/presale-pool/PresaleFactory.sol:PresalePoolFactory",
        "label": "__gap",
        "offset": 0,
        "slot": "102",
        "type": "t_array(t_uint256)49_storage"
      },
      {
        "astId": 1394,
        "contract": "contracts/presale-pool/PresaleFactory.sol:PresalePoolFactory",
        "label": "impl",
        "offset": 0,
        "slot": "151",
        "type": "t_address"
      },
      {
        "astId": 1397,
        "contract": "contracts/presale-pool/PresaleFactory.sol:PresalePoolFactory",
        "label": "pools",
        "offset": 0,
        "slot": "152",
        "type": "t_array(t_address)dyn_storage"
      },
      {
        "astId": 1404,
        "contract": "contracts/presale-pool/PresaleFactory.sol:PresalePoolFactory",
        "label": "userCreatedPools",
        "offset": 0,
        "slot": "153",
        "type": "t_mapping(t_address,t_mapping(t_address,t_array(t_address)dyn_storage))"
      }
    ],
    "types": {
      "t_address": {
        "encoding": "inplace",
        "label": "address",
        "numberOfBytes": "20"
      },
      "t_array(t_address)dyn_storage": {
        "base": "t_address",
        "encoding": "dynamic_array",
        "label": "address[]",
        "numberOfBytes": "32"
      },
      "t_array(t_uint256)49_storage": {
        "base": "t_uint256",
        "encoding": "inplace",
        "label": "uint256[49]",
        "numberOfBytes": "1568"
      },
      "t_array(t_uint256)50_storage": {
        "base": "t_uint256",
        "encoding": "inplace",
        "label": "uint256[50]",
        "numberOfBytes": "1600"
      },
      "t_bool": {
        "encoding": "inplace",
        "label": "bool",
        "numberOfBytes": "1"
      },
      "t_mapping(t_address,t_array(t_address)dyn_storage)": {
        "encoding": "mapping",
        "key": "t_address",
        "label": "mapping(address => address[])",
        "numberOfBytes": "32",
        "value": "t_array(t_address)dyn_storage"
      },
      "t_mapping(t_address,t_mapping(t_address,t_array(t_address)dyn_storage))": {
        "encoding": "mapping",
        "key": "t_address",
        "label": "mapping(address => mapping(address => address[]))",
        "numberOfBytes": "32",
        "value": "t_mapping(t_address,t_array(t_address)dyn_storage)"
      },
      "t_uint256": {
        "encoding": "inplace",
        "label": "uint256",
        "numberOfBytes": "32"
      }
    }
  }
}